{
  "address": "0x5FbDB2315678afecb367f032d93F642f64180aa3",
  "abi": [
    {
      "inputs": [],
      "stateMutability": "nonpayable",
      "type": "constructor"
    },
    {
      "inputs": [],
      "name": "doesNotHavePrivilege",
      "type": "error"
    },
    {
      "anonymous": false,
      "inputs": [
        {
          "indexed": true,
          "internalType": "address",
          "name": "gotAccess",
          "type": "address"
        },
        {
          "indexed": false,
          "internalType": "uint256",
          "name": "token",
          "type": "uint256"
        },
        {
          "indexed": false,
          "internalType": "uint8",
          "name": "AdminPrivilege",
          "type": "uint8"
        }
      ],
      "name": "accessLevel",
      "type": "event"
    },
    {
      "anonymous": false,
      "inputs": [
        {
          "indexed": true,
          "internalType": "address",
          "name": "Owner",
          "type": "address"
        },
        {
          "indexed": false,
          "internalType": "string",
          "name": "HashValue",
          "type": "string"
        }
      ],
      "name": "fileAdded",
      "type": "event"
    },
    {
      "anonymous": false,
      "inputs": [
        {
          "indexed": true,
          "internalType": "address",
          "name": "whoDeleted",
          "type": "address"
        },
        {
          "indexed": false,
          "internalType": "uint256",
          "name": "token",
          "type": "uint256"
        }
      ],
      "name": "fileDeleted",
      "type": "event"
    },
    {
      "inputs": [
        {
          "internalType": "string",
          "name": "ipfsHash",
          "type": "string"
        }
      ],
      "name": "addFile",
      "outputs": [],
      "stateMutability": "nonpayable",
      "type": "function"
    },
    {
      "inputs": [
        {
          "internalType": "address",
          "name": "account",
          "type": "address"
        },
        {
          "internalType": "uint256",
          "name": "tokenId",
          "type": "uint256"
        },
        {
          "internalType": "uint8",
          "name": "level",
          "type": "uint8"
        }
      ],
      "name": "changeAccessLevel",
      "outputs": [],
      "stateMutability": "nonpayable",
      "type": "function"
    },
    {
      "inputs": [
        {
          "internalType": "uint256",
          "name": "tokenId",
          "type": "uint256"
        }
      ],
      "name": "deleteFile",
      "outputs": [],
      "stateMutability": "nonpayable",
      "type": "function"
    },
    {
      "inputs": [
        {
          "internalType": "uint256",
          "name": "tokenId",
          "type": "uint256"
        }
      ],
      "name": "getAccessList",
      "outputs": [
        {
          "internalType": "uint8",
          "name": "",
          "type": "uint8"
        }
      ],
      "stateMutability": "view",
      "type": "function"
    },
    {
      "inputs": [],
      "name": "getOwner",
      "outputs": [
        {
          "internalType": "address",
          "name": "",
          "type": "address"
        }
      ],
      "stateMutability": "view",
      "type": "function"
    },
    {
      "inputs": [],
      "name": "tokenID",
      "outputs": [
        {
          "internalType": "uint256",
          "name": "",
          "type": "uint256"
        }
      ],
      "stateMutability": "view",
      "type": "function"
    },
    {
      "inputs": [
        {
          "internalType": "uint256",
          "name": "tokenId",
          "type": "uint256"
        }
      ],
      "name": "tokenIDtoIPFS",
      "outputs": [
        {
          "internalType": "string",
          "name": "",
          "type": "string"
        }
      ],
      "stateMutability": "view",
      "type": "function"
    },
    {
      "inputs": [
        {
          "internalType": "uint256",
          "name": "tokenId",
          "type": "uint256"
        },
        {
          "internalType": "string",
          "name": "ipfsHash",
          "type": "string"
        }
      ],
      "name": "updateIPFS",
      "outputs": [],
      "stateMutability": "nonpayable",
      "type": "function"
    }
  ],
  "transactionHash": "0x412529aa514a4d774d179b3bcf7f974a55b27c1477dd394a8e394cd1136bc4ac",
  "args": [],
  "numDeployments": 1,
  "solcInputHash": "3ed172325de107109fd5ec25cb84a4cd",
  "bytecode": "0x60a060405234801561001057600080fd5b503373ffffffffffffffffffffffffffffffffffffffff1660808173ffffffffffffffffffffffffffffffffffffffff1660601b8152505060805160601c610ca261006660003960006103040152610ca26000f3fe608060405234801561001057600080fd5b50600436106100885760003560e01c8063be4840521161005b578063be48405214610115578063c5b4200614610131578063eb9b9b641461014d578063f31bb1771461016957610088565b806330d8bb9b1461008d57806345149390146100a9578063893d20e8146100d9578063a5c42ef1146100f7575b600080fd5b6100a760048036038101906100a29190610879565b610199565b005b6100c360048036038101906100be91906108d5565b61025b565b6040516100d0919061098a565b60405180910390f35b6100e1610300565b6040516100ee91906109ed565b60405180910390f35b6100ff610328565b60405161010c9190610a17565b60405180910390f35b61012f600480360381019061012a9190610a97565b61032e565b005b61014b600480360381019061014691906108d5565b610437565b005b61016760048036038101906101629190610aea565b6104df565b005b610183600480360381019061017e91906108d5565b6105dc565b6040516101909190610b42565b60405180910390f35b8160026101a5826105dc565b60ff1610156101e0576040517ff06c071c00000000000000000000000000000000000000000000000000000000815260040160405180910390fd5b81600160008581526020019081526020016000209080519060200190610207929190610646565b503373ffffffffffffffffffffffffffffffffffffffff167ff1e5304e5011da2cafdda3d7ebfcf2367dd9e34e499bb509c77a7f990808cd208460405161024e9190610a17565b60405180910390a2505050565b606060016000838152602001908152602001600020805461027b90610b8c565b80601f01602080910402602001604051908101604052809291908181526020018280546102a790610b8c565b80156102f45780601f106102c9576101008083540402835291602001916102f4565b820191906000526020600020905b8154815290600101906020018083116102d757829003601f168201915b50505050509050919050565b60007f0000000000000000000000000000000000000000000000000000000000000000905090565b60005481565b81600361033a826105dc565b60ff161015610375576040517ff06c071c00000000000000000000000000000000000000000000000000000000815260040160405180910390fd5b81600260008673ffffffffffffffffffffffffffffffffffffffff1673ffffffffffffffffffffffffffffffffffffffff168152602001908152602001600020600001600085815260200190815260200160002060006101000a81548160ff021916908360ff1602179055508373ffffffffffffffffffffffffffffffffffffffff167fe539cdf3157899d6f0eae1caf49852606c69feb04420771bc50bba47ee379fe08484604051610429929190610bbe565b60405180910390a250505050565b806003610443826105dc565b60ff16101561047e576040517ff06c071c00000000000000000000000000000000000000000000000000000000815260040160405180910390fd5b6040518060400160405280600781526020017f44656c65746564000000000000000000000000000000000000000000000000008152506001600084815260200190815260200160002090805190602001906104da929190610646565b505050565b8060016000805481526020019081526020016000209080519060200190610507929190610646565b506003600260003373ffffffffffffffffffffffffffffffffffffffff1673ffffffffffffffffffffffffffffffffffffffff16815260200190815260200160002060000160008054815260200190815260200160002060006101000a81548160ff021916908360ff16021790555060016000546105859190610c16565b6000819055503373ffffffffffffffffffffffffffffffffffffffff167f1da8e28e528020f0bb9de07bec909ed9f712b58a70ed5d38fb10932d04e0ebc4826040516105d1919061098a565b60405180910390a250565b6000600260003373ffffffffffffffffffffffffffffffffffffffff1673ffffffffffffffffffffffffffffffffffffffff168152602001908152602001600020600001600083815260200190815260200160002060009054906101000a900460ff169050919050565b82805461065290610b8c565b90600052602060002090601f01602090048101928261067457600085556106bb565b82601f1061068d57805160ff19168380011785556106bb565b828001600101855582156106bb579182015b828111156106ba57825182559160200191906001019061069f565b5b5090506106c891906106cc565b5090565b5b808211156106e55760008160009055506001016106cd565b5090565b6000604051905090565b600080fd5b600080fd5b6000819050919050565b610710816106fd565b811461071b57600080fd5b50565b60008135905061072d81610707565b92915050565b600080fd5b600080fd5b6000601f19601f8301169050919050565b7f4e487b7100000000000000000000000000000000000000000000000000000000600052604160045260246000fd5b6107868261073d565b810181811067ffffffffffffffff821117156107a5576107a461074e565b5b80604052505050565b60006107b86106e9565b90506107c4828261077d565b919050565b600067ffffffffffffffff8211156107e4576107e361074e565b5b6107ed8261073d565b9050602081019050919050565b82818337600083830152505050565b600061081c610817846107c9565b6107ae565b90508281526020810184848401111561083857610837610738565b5b6108438482856107fa565b509392505050565b600082601f8301126108605761085f610733565b5b8135610870848260208601610809565b91505092915050565b600080604083850312156108905761088f6106f3565b5b600061089e8582860161071e565b925050602083013567ffffffffffffffff8111156108bf576108be6106f8565b5b6108cb8582860161084b565b9150509250929050565b6000602082840312156108eb576108ea6106f3565b5b60006108f98482850161071e565b91505092915050565b600081519050919050565b600082825260208201905092915050565b60005b8381101561093c578082015181840152602081019050610921565b8381111561094b576000848401525b50505050565b600061095c82610902565b610966818561090d565b935061097681856020860161091e565b61097f8161073d565b840191505092915050565b600060208201905081810360008301526109a48184610951565b905092915050565b600073ffffffffffffffffffffffffffffffffffffffff82169050919050565b60006109d7826109ac565b9050919050565b6109e7816109cc565b82525050565b6000602082019050610a0260008301846109de565b92915050565b610a11816106fd565b82525050565b6000602082019050610a2c6000830184610a08565b92915050565b610a3b816109cc565b8114610a4657600080fd5b50565b600081359050610a5881610a32565b92915050565b600060ff82169050919050565b610a7481610a5e565b8114610a7f57600080fd5b50565b600081359050610a9181610a6b565b92915050565b600080600060608486031215610ab057610aaf6106f3565b5b6000610abe86828701610a49565b9350506020610acf8682870161071e565b9250506040610ae086828701610a82565b9150509250925092565b600060208284031215610b0057610aff6106f3565b5b600082013567ffffffffffffffff811115610b1e57610b1d6106f8565b5b610b2a8482850161084b565b91505092915050565b610b3c81610a5e565b82525050565b6000602082019050610b576000830184610b33565b92915050565b7f4e487b7100000000000000000000000000000000000000000000000000000000600052602260045260246000fd5b60006002820490506001821680610ba457607f821691505b60208210811415610bb857610bb7610b5d565b5b50919050565b6000604082019050610bd36000830185610a08565b610be06020830184610b33565b9392505050565b7f4e487b7100000000000000000000000000000000000000000000000000000000600052601160045260246000fd5b6000610c21826106fd565b9150610c2c836106fd565b9250827fffffffffffffffffffffffffffffffffffffffffffffffffffffffffffffffff03821115610c6157610c60610be7565b5b82820190509291505056fea2646970667358221220d0449081aec9413f95e41fd809e6984b6814bd2dacdf854981c9bedc1d2f85a464736f6c63430008080033",
  "devdoc": {
    "kind": "dev",
    "methods": {},
    "version": 1
  },
  "userdoc": {
    "kind": "user",
    "methods": {},
    "version": 1
  },
  "storageLayout": {
    "storage": [
      {
        "astId": 32,
        "contract": "contracts/Web3Drive.sol:Web3Drive",
        "label": "tokenID",
        "offset": 0,
        "slot": "0",
        "type": "t_uint256"
      },
      {
        "astId": 36,
        "contract": "contracts/Web3Drive.sol:Web3Drive",
        "label": "tokenToIPFS",
        "offset": 0,
        "slot": "1",
        "type": "t_mapping(t_uint256,t_string_storage)"
      },
      {
        "astId": 41,
        "contract": "contracts/Web3Drive.sol:Web3Drive",
        "label": "accessList",
        "offset": 0,
        "slot": "2",
        "type": "t_mapping(t_address,t_struct(Hello)28_storage)"
      }
    ],
    "types": {
      "t_address": {
        "encoding": "inplace",
        "label": "address",
        "numberOfBytes": "20"
      },
      "t_mapping(t_address,t_struct(Hello)28_storage)": {
        "encoding": "mapping",
        "key": "t_address",
        "label": "mapping(address => struct Web3Drive.Hello)",
        "numberOfBytes": "32",
        "value": "t_struct(Hello)28_storage"
      },
      "t_mapping(t_uint256,t_string_storage)": {
        "encoding": "mapping",
        "key": "t_uint256",
        "label": "mapping(uint256 => string)",
        "numberOfBytes": "32",
        "value": "t_string_storage"
      },
      "t_mapping(t_uint256,t_uint8)": {
        "encoding": "mapping",
        "key": "t_uint256",
        "label": "mapping(uint256 => uint8)",
        "numberOfBytes": "32",
        "value": "t_uint8"
      },
      "t_string_storage": {
        "encoding": "bytes",
        "label": "string",
        "numberOfBytes": "32"
      },
      "t_struct(Hello)28_storage": {
        "encoding": "inplace",
        "label": "struct Web3Drive.Hello",
        "members": [
          {
            "astId": 27,
            "contract": "contracts/Web3Drive.sol:Web3Drive",
            "label": "Access",
            "offset": 0,
            "slot": "0",
            "type": "t_mapping(t_uint256,t_uint8)"
          }
        ],
        "numberOfBytes": "32"
      },
      "t_uint256": {
        "encoding": "inplace",
        "label": "uint256",
        "numberOfBytes": "32"
      },
      "t_uint8": {
        "encoding": "inplace",
        "label": "uint8",
        "numberOfBytes": "1"
      }
    }
  }
}