{
  "address": "0x5FbDB2315678afecb367f032d93F642f64180aa3",
  "abi": [
    {
      "inputs": [],
      "stateMutability": "nonpayable",
      "type": "constructor"
    },
    {
      "inputs": [
        {
          "internalType": "address",
          "name": "acc",
          "type": "address"
        },
        {
          "internalType": "string",
          "name": "name",
          "type": "string"
        }
      ],
      "name": "fileDoesNotExist",
      "type": "error"
    },
    {
      "anonymous": false,
      "inputs": [
        {
          "indexed": true,
          "internalType": "address",
          "name": "owner",
          "type": "address"
        },
        {
          "indexed": false,
          "internalType": "string",
          "name": "name",
          "type": "string"
        },
        {
          "indexed": true,
          "internalType": "string",
          "name": "hash",
          "type": "string"
        }
      ],
      "name": "accessGiven",
      "type": "event"
    },
    {
      "anonymous": false,
      "inputs": [
        {
          "indexed": true,
          "internalType": "address",
          "name": "owner",
          "type": "address"
        },
        {
          "indexed": false,
          "internalType": "string",
          "name": "name",
          "type": "string"
        },
        {
          "indexed": true,
          "internalType": "string",
          "name": "hash",
          "type": "string"
        }
      ],
      "name": "fileAdded",
      "type": "event"
    },
    {
      "inputs": [
        {
          "internalType": "string",
          "name": "name",
          "type": "string"
        },
        {
          "internalType": "string",
          "name": "ipfshash",
          "type": "string"
        }
      ],
      "name": "addFile",
      "outputs": [],
      "stateMutability": "nonpayable",
      "type": "function"
    },
    {
      "inputs": [
        {
          "internalType": "address",
          "name": "account",
          "type": "address"
        },
        {
          "internalType": "string",
          "name": "nickname",
          "type": "string"
        }
      ],
      "name": "addNickNames",
      "outputs": [],
      "stateMutability": "nonpayable",
      "type": "function"
    },
    {
      "inputs": [
        {
          "internalType": "address",
          "name": "account",
          "type": "address"
        },
        {
          "internalType": "string",
          "name": "name",
          "type": "string"
        },
        {
          "internalType": "string",
          "name": "ipfshash",
          "type": "string"
        }
      ],
      "name": "allowAccess",
      "outputs": [],
      "stateMutability": "nonpayable",
      "type": "function"
    },
    {
      "inputs": [
        {
          "internalType": "string",
          "name": "name",
          "type": "string"
        }
      ],
      "name": "deleteFile",
      "outputs": [],
      "stateMutability": "nonpayable",
      "type": "function"
    },
    {
      "inputs": [
        {
          "internalType": "string",
          "name": "name",
          "type": "string"
        }
      ],
      "name": "getIPFShash",
      "outputs": [
        {
          "internalType": "string",
          "name": "",
          "type": "string"
        }
      ],
      "stateMutability": "view",
      "type": "function"
    },
    {
      "inputs": [],
      "name": "getOwner",
      "outputs": [
        {
          "internalType": "address",
          "name": "",
          "type": "address"
        }
      ],
      "stateMutability": "view",
      "type": "function"
    },
    {
      "inputs": [
        {
          "internalType": "address",
          "name": "account",
          "type": "address"
        },
        {
          "internalType": "string",
          "name": "ipfshash",
          "type": "string"
        },
        {
          "internalType": "string",
          "name": "name",
          "type": "string"
        }
      ],
      "name": "revokeAccess",
      "outputs": [],
      "stateMutability": "nonpayable",
      "type": "function"
    },
    {
      "inputs": [
        {
          "internalType": "string",
          "name": "name",
          "type": "string"
        }
      ],
      "name": "showAccess",
      "outputs": [
        {
          "internalType": "address[]",
          "name": "",
          "type": "address[]"
        }
      ],
      "stateMutability": "view",
      "type": "function"
    }
  ],
  "transactionHash": "0xf0625786fd581458e5e689157d3f3aacb296200bca1880492efe24b21104b137",
  "args": [],
  "numDeployments": 1,
  "solcInputHash": "0a1af0be9d647775d0ef2f6bb79b7fd4",
  "bytecode": "0x60c060405261dead73ffffffffffffffffffffffffffffffffffffffff1660a09073ffffffffffffffffffffffffffffffffffffffff1660601b81525034801561004857600080fd5b503373ffffffffffffffffffffffffffffffffffffffff1660808173ffffffffffffffffffffffffffffffffffffffff1660601b8152505060805160601c60a05160601c6115956100ab6000396000610a580152600061078901526115956000f3fe608060405234801561001057600080fd5b50600436106100885760003560e01c8063703d80a51161005b578063703d80a514610125578063893d20e814610141578063a99100541461015f578063f266fa4a1461017b57610088565b806312f754e21461008d578063248bfc3b146100a957806334024731146100c55780635c2191a4146100f5575b600080fd5b6100a760048036038101906100a29190610f9c565b610197565b005b6100c360048036038101906100be919061102c565b610404565b005b6100df60048036038101906100da91906110a8565b610558565b6040516100ec9190611179565b60405180910390f35b61010f600480360381019061010a91906110a8565b610644565b60405161011c9190611259565b60405180910390f35b61013f600480360381019061013a919061127b565b6106f0565b005b610149610785565b60405161015691906112e6565b60405180910390f35b610179600480360381019061017491906110a8565b6107ad565b005b61019560048036038101906101909190611301565b6108ee565b005b60016000803373ffffffffffffffffffffffffffffffffffffffff1673ffffffffffffffffffffffffffffffffffffffff168152602001908152602001600020846040516101e591906113c8565b908152602001604051809103902080546101fe9061140e565b905010156102455733836040517f05414e6e00000000000000000000000000000000000000000000000000000000815260040161023c929190611440565b60405180910390fd5b60028360405161025591906113c8565b9081526020016040518091039020849080600181540180825580915050600190039060005260206000200160009091909190916101000a81548173ffffffffffffffffffffffffffffffffffffffff021916908373ffffffffffffffffffffffffffffffffffffffff16021790555081816000808773ffffffffffffffffffffffffffffffffffffffff1673ffffffffffffffffffffffffffffffffffffffff1681526020019081526020016000208560405161031291906113c8565b9081526020016040518091039020919061032d929190610bfa565b5081816000803373ffffffffffffffffffffffffffffffffffffffff1673ffffffffffffffffffffffffffffffffffffffff1681526020019081526020016000208560405161037c91906113c8565b90815260200160405180910390209190610397929190610bfa565b5081816040516103a8929190611495565b60405180910390203373ffffffffffffffffffffffffffffffffffffffff167f0b612a127c3a76bda52d078f82cedaeb9c241d022529b9a081cbb07244be8e21856040516103f69190611179565b60405180910390a350505050565b81816000803373ffffffffffffffffffffffffffffffffffffffff1673ffffffffffffffffffffffffffffffffffffffff1681526020019081526020016000208560405161045291906113c8565b9081526020016040518091039020919061046d929190610bfa565b5060028360405161047e91906113c8565b9081526020016040518091039020339080600181540180825580915050600190039060005260206000200160009091909190916101000a81548173ffffffffffffffffffffffffffffffffffffffff021916908373ffffffffffffffffffffffffffffffffffffffff16021790555081816040516104fd929190611495565b60405180910390203373ffffffffffffffffffffffffffffffffffffffff167f7f626bb8eda4beb839c86ee25b81d9f3806f1980516bebc4744d97b9996487ae8560405161054b9190611179565b60405180910390a3505050565b60606000803373ffffffffffffffffffffffffffffffffffffffff1673ffffffffffffffffffffffffffffffffffffffff168152602001908152602001600020826040516105a691906113c8565b908152602001604051809103902080546105bf9061140e565b80601f01602080910402602001604051908101604052809291908181526020018280546105eb9061140e565b80156106385780601f1061060d57610100808354040283529160200191610638565b820191906000526020600020905b81548152906001019060200180831161061b57829003601f168201915b50505050509050919050565b606060028260405161065691906113c8565b90815260200160405180910390208054806020026020016040519081016040528092919081815260200182805480156106e457602002820191906000526020600020905b8160009054906101000a900473ffffffffffffffffffffffffffffffffffffffff1673ffffffffffffffffffffffffffffffffffffffff168152602001906001019080831161069a575b50505050509050919050565b80600160003373ffffffffffffffffffffffffffffffffffffffff1673ffffffffffffffffffffffffffffffffffffffff16815260200190815260200160002060008473ffffffffffffffffffffffffffffffffffffffff1673ffffffffffffffffffffffffffffffffffffffff1681526020019081526020016000209080519060200190610780929190610c80565b505050565b60007f0000000000000000000000000000000000000000000000000000000000000000905090565b60016000803373ffffffffffffffffffffffffffffffffffffffff1673ffffffffffffffffffffffffffffffffffffffff168152602001908152602001600020826040516107fb91906113c8565b908152602001604051809103902080546108149061140e565b9050101561085b5733816040517f05414e6e000000000000000000000000000000000000000000000000000000008152600401610852929190611440565b60405180910390fd5b6000803373ffffffffffffffffffffffffffffffffffffffff1673ffffffffffffffffffffffffffffffffffffffff168152602001908152602001600020816040516108a791906113c8565b908152602001604051809103902060006108c19190610d06565b6002816040516108d191906113c8565b908152602001604051809103902060006108eb9190610d46565b50565b60016000803373ffffffffffffffffffffffffffffffffffffffff1673ffffffffffffffffffffffffffffffffffffffff1681526020019081526020016000208260405161093c91906113c8565b908152602001604051809103902080546109559061140e565b9050101561099c5733816040517f05414e6e000000000000000000000000000000000000000000000000000000008152600401610993929190611440565b60405180910390fd5b60005b6002826040516109af91906113c8565b908152602001604051809103902080549050811015610b85578373ffffffffffffffffffffffffffffffffffffffff166002836040516109ef91906113c8565b90815260200160405180910390208281548110610a0f57610a0e6114ae565b5b9060005260206000200160009054906101000a900473ffffffffffffffffffffffffffffffffffffffff1673ffffffffffffffffffffffffffffffffffffffff161415610b72577f0000000000000000000000000000000000000000000000000000000000000000600283604051610a8791906113c8565b90815260200160405180910390208281548110610aa757610aa66114ae565b5b9060005260206000200160006101000a81548173ffffffffffffffffffffffffffffffffffffffff021916908373ffffffffffffffffffffffffffffffffffffffff160217905550604051806020016040528060008152506000808673ffffffffffffffffffffffffffffffffffffffff1673ffffffffffffffffffffffffffffffffffffffff16815260200190815260200160002083604051610b4b91906113c8565b90815260200160405180910390209080519060200190610b6c929190610c80565b50610b85565b8080610b7d90611516565b91505061099f565b50816000803373ffffffffffffffffffffffffffffffffffffffff1673ffffffffffffffffffffffffffffffffffffffff16815260200190815260200160002082604051610bd391906113c8565b90815260200160405180910390209080519060200190610bf4929190610c80565b50505050565b828054610c069061140e565b90600052602060002090601f016020900481019282610c285760008555610c6f565b82601f10610c4157803560ff1916838001178555610c6f565b82800160010185558215610c6f579182015b82811115610c6e578235825591602001919060010190610c53565b5b509050610c7c9190610d67565b5090565b828054610c8c9061140e565b90600052602060002090601f016020900481019282610cae5760008555610cf5565b82601f10610cc757805160ff1916838001178555610cf5565b82800160010185558215610cf5579182015b82811115610cf4578251825591602001919060010190610cd9565b5b509050610d029190610d67565b5090565b508054610d129061140e565b6000825580601f10610d245750610d43565b601f016020900490600052602060002090810190610d429190610d67565b5b50565b5080546000825590600052602060002090810190610d649190610d67565b50565b5b80821115610d80576000816000905550600101610d68565b5090565b6000604051905090565b600080fd5b600080fd5b600073ffffffffffffffffffffffffffffffffffffffff82169050919050565b6000610dc382610d98565b9050919050565b610dd381610db8565b8114610dde57600080fd5b50565b600081359050610df081610dca565b92915050565b600080fd5b600080fd5b6000601f19601f8301169050919050565b7f4e487b7100000000000000000000000000000000000000000000000000000000600052604160045260246000fd5b610e4982610e00565b810181811067ffffffffffffffff82111715610e6857610e67610e11565b5b80604052505050565b6000610e7b610d84565b9050610e878282610e40565b919050565b600067ffffffffffffffff821115610ea757610ea6610e11565b5b610eb082610e00565b9050602081019050919050565b82818337600083830152505050565b6000610edf610eda84610e8c565b610e71565b905082815260208101848484011115610efb57610efa610dfb565b5b610f06848285610ebd565b509392505050565b600082601f830112610f2357610f22610df6565b5b8135610f33848260208601610ecc565b91505092915050565b600080fd5b600080fd5b60008083601f840112610f5c57610f5b610df6565b5b8235905067ffffffffffffffff811115610f7957610f78610f3c565b5b602083019150836001820283011115610f9557610f94610f41565b5b9250929050565b60008060008060608587031215610fb657610fb5610d8e565b5b6000610fc487828801610de1565b945050602085013567ffffffffffffffff811115610fe557610fe4610d93565b5b610ff187828801610f0e565b935050604085013567ffffffffffffffff81111561101257611011610d93565b5b61101e87828801610f46565b925092505092959194509250565b60008060006040848603121561104557611044610d8e565b5b600084013567ffffffffffffffff81111561106357611062610d93565b5b61106f86828701610f0e565b935050602084013567ffffffffffffffff8111156110905761108f610d93565b5b61109c86828701610f46565b92509250509250925092565b6000602082840312156110be576110bd610d8e565b5b600082013567ffffffffffffffff8111156110dc576110db610d93565b5b6110e884828501610f0e565b91505092915050565b600081519050919050565b600082825260208201905092915050565b60005b8381101561112b578082015181840152602081019050611110565b8381111561113a576000848401525b50505050565b600061114b826110f1565b61115581856110fc565b935061116581856020860161110d565b61116e81610e00565b840191505092915050565b600060208201905081810360008301526111938184611140565b905092915050565b600081519050919050565b600082825260208201905092915050565b6000819050602082019050919050565b6111d081610db8565b82525050565b60006111e283836111c7565b60208301905092915050565b6000602082019050919050565b60006112068261119b565b61121081856111a6565b935061121b836111b7565b8060005b8381101561124c57815161123388826111d6565b975061123e836111ee565b92505060018101905061121f565b5085935050505092915050565b6000602082019050818103600083015261127381846111fb565b905092915050565b6000806040838503121561129257611291610d8e565b5b60006112a085828601610de1565b925050602083013567ffffffffffffffff8111156112c1576112c0610d93565b5b6112cd85828601610f0e565b9150509250929050565b6112e081610db8565b82525050565b60006020820190506112fb60008301846112d7565b92915050565b60008060006060848603121561131a57611319610d8e565b5b600061132886828701610de1565b935050602084013567ffffffffffffffff81111561134957611348610d93565b5b61135586828701610f0e565b925050604084013567ffffffffffffffff81111561137657611375610d93565b5b61138286828701610f0e565b9150509250925092565b600081905092915050565b60006113a2826110f1565b6113ac818561138c565b93506113bc81856020860161110d565b80840191505092915050565b60006113d48284611397565b915081905092915050565b7f4e487b7100000000000000000000000000000000000000000000000000000000600052602260045260246000fd5b6000600282049050600182168061142657607f821691505b6020821081141561143a576114396113df565b5b50919050565b600060408201905061145560008301856112d7565b81810360208301526114678184611140565b90509392505050565b600061147c838561138c565b9350611489838584610ebd565b82840190509392505050565b60006114a2828486611470565b91508190509392505050565b7f4e487b7100000000000000000000000000000000000000000000000000000000600052603260045260246000fd5b7f4e487b7100000000000000000000000000000000000000000000000000000000600052601160045260246000fd5b6000819050919050565b60006115218261150c565b91507fffffffffffffffffffffffffffffffffffffffffffffffffffffffffffffffff821415611554576115536114dd565b5b60018201905091905056fea2646970667358221220cbce1a556731896801b5ed9d0d64924f209f3b6a9b672ac2701f7095216e15d664736f6c63430008080033",
  "devdoc": {
    "kind": "dev",
    "methods": {},
    "version": 1
  },
  "userdoc": {
    "kind": "user",
    "methods": {},
    "version": 1
  },
  "storageLayout": {
    "storage": [
      {
        "astId": 19,
        "contract": "contracts/Web3Drive.sol:Web3Drive",
        "label": "s_ownfiles",
        "offset": 0,
        "slot": "0",
        "type": "t_mapping(t_address,t_mapping(t_string_memory_ptr,t_string_storage))"
      },
      {
        "astId": 25,
        "contract": "contracts/Web3Drive.sol:Web3Drive",
        "label": "s_nicknames",
        "offset": 0,
        "slot": "1",
        "type": "t_mapping(t_address,t_mapping(t_address,t_string_storage))"
      },
      {
        "astId": 30,
        "contract": "contracts/Web3Drive.sol:Web3Drive",
        "label": "s_hasAccess",
        "offset": 0,
        "slot": "2",
        "type": "t_mapping(t_string_memory_ptr,t_array(t_address)dyn_storage)"
      }
    ],
    "types": {
      "t_address": {
        "encoding": "inplace",
        "label": "address",
        "numberOfBytes": "20"
      },
      "t_array(t_address)dyn_storage": {
        "base": "t_address",
        "encoding": "dynamic_array",
        "label": "address[]",
        "numberOfBytes": "32"
      },
      "t_mapping(t_address,t_mapping(t_address,t_string_storage))": {
        "encoding": "mapping",
        "key": "t_address",
        "label": "mapping(address => mapping(address => string))",
        "numberOfBytes": "32",
        "value": "t_mapping(t_address,t_string_storage)"
      },
      "t_mapping(t_address,t_mapping(t_string_memory_ptr,t_string_storage))": {
        "encoding": "mapping",
        "key": "t_address",
        "label": "mapping(address => mapping(string => string))",
        "numberOfBytes": "32",
        "value": "t_mapping(t_string_memory_ptr,t_string_storage)"
      },
      "t_mapping(t_address,t_string_storage)": {
        "encoding": "mapping",
        "key": "t_address",
        "label": "mapping(address => string)",
        "numberOfBytes": "32",
        "value": "t_string_storage"
      },
      "t_mapping(t_string_memory_ptr,t_array(t_address)dyn_storage)": {
        "encoding": "mapping",
        "key": "t_string_memory_ptr",
        "label": "mapping(string => address[])",
        "numberOfBytes": "32",
        "value": "t_array(t_address)dyn_storage"
      },
      "t_mapping(t_string_memory_ptr,t_string_storage)": {
        "encoding": "mapping",
        "key": "t_string_memory_ptr",
        "label": "mapping(string => string)",
        "numberOfBytes": "32",
        "value": "t_string_storage"
      },
      "t_string_memory_ptr": {
        "encoding": "bytes",
        "label": "string",
        "numberOfBytes": "32"
      },
      "t_string_storage": {
        "encoding": "bytes",
        "label": "string",
        "numberOfBytes": "32"
      }
    }
  }
}