{
  "address": "0x5FbDB2315678afecb367f032d93F642f64180aa3",
  "abi": [
    {
      "inputs": [],
      "stateMutability": "nonpayable",
      "type": "constructor"
    },
    {
      "inputs": [
        {
          "internalType": "address",
          "name": "acc",
          "type": "address"
        },
        {
          "internalType": "string",
          "name": "name",
          "type": "string"
        }
      ],
      "name": "fileDoesNotExist",
      "type": "error"
    },
    {
      "inputs": [
        {
          "internalType": "address",
          "name": "acc",
          "type": "address"
        },
        {
          "internalType": "string",
          "name": "name",
          "type": "string"
        }
      ],
      "name": "fileNameAlreadyExist",
      "type": "error"
    },
    {
      "anonymous": false,
      "inputs": [
        {
          "indexed": true,
          "internalType": "address",
          "name": "owner",
          "type": "address"
        },
        {
          "indexed": false,
          "internalType": "string",
          "name": "name",
          "type": "string"
        },
        {
          "indexed": true,
          "internalType": "string",
          "name": "hash",
          "type": "string"
        }
      ],
      "name": "accessGiven",
      "type": "event"
    },
    {
      "anonymous": false,
      "inputs": [
        {
          "indexed": true,
          "internalType": "address",
          "name": "owner",
          "type": "address"
        },
        {
          "indexed": false,
          "internalType": "string",
          "name": "name",
          "type": "string"
        },
        {
          "indexed": true,
          "internalType": "string",
          "name": "hash",
          "type": "string"
        }
      ],
      "name": "fileAdded",
      "type": "event"
    },
    {
      "inputs": [
        {
          "internalType": "string",
          "name": "name",
          "type": "string"
        },
        {
          "internalType": "string",
          "name": "ipfshash",
          "type": "string"
        }
      ],
      "name": "addFile",
      "outputs": [],
      "stateMutability": "nonpayable",
      "type": "function"
    },
    {
      "inputs": [
        {
          "internalType": "address",
          "name": "account",
          "type": "address"
        },
        {
          "internalType": "string",
          "name": "nickname",
          "type": "string"
        }
      ],
      "name": "addNickNames",
      "outputs": [],
      "stateMutability": "nonpayable",
      "type": "function"
    },
    {
      "inputs": [
        {
          "internalType": "address",
          "name": "account",
          "type": "address"
        },
        {
          "internalType": "string",
          "name": "name",
          "type": "string"
        },
        {
          "internalType": "string",
          "name": "ipfshash",
          "type": "string"
        }
      ],
      "name": "allowAccess",
      "outputs": [],
      "stateMutability": "nonpayable",
      "type": "function"
    },
    {
      "inputs": [
        {
          "internalType": "string",
          "name": "name",
          "type": "string"
        }
      ],
      "name": "deleteFile",
      "outputs": [],
      "stateMutability": "nonpayable",
      "type": "function"
    },
    {
      "inputs": [
        {
          "internalType": "string",
          "name": "name",
          "type": "string"
        }
      ],
      "name": "getIPFShash",
      "outputs": [
        {
          "internalType": "string",
          "name": "",
          "type": "string"
        }
      ],
      "stateMutability": "view",
      "type": "function"
    },
    {
      "inputs": [],
      "name": "getOwner",
      "outputs": [
        {
          "internalType": "address",
          "name": "",
          "type": "address"
        }
      ],
      "stateMutability": "view",
      "type": "function"
    },
    {
      "inputs": [
        {
          "internalType": "address",
          "name": "account",
          "type": "address"
        },
        {
          "internalType": "string",
          "name": "ipfshash",
          "type": "string"
        },
        {
          "internalType": "string",
          "name": "name",
          "type": "string"
        }
      ],
      "name": "revokeAccess",
      "outputs": [],
      "stateMutability": "nonpayable",
      "type": "function"
    },
    {
      "inputs": [
        {
          "internalType": "string",
          "name": "name",
          "type": "string"
        }
      ],
      "name": "showAccess",
      "outputs": [
        {
          "internalType": "address[]",
          "name": "",
          "type": "address[]"
        }
      ],
      "stateMutability": "view",
      "type": "function"
    }
  ],
  "transactionHash": "0xcdf95fdb118982f196c086e6cad665f0cdfe13d348b526ff64355572ec57326e",
  "args": [],
  "numDeployments": 1,
  "solcInputHash": "3885f50d18282d5e346a83e1b0f373e9",
  "bytecode": "0x60c060405261dead73ffffffffffffffffffffffffffffffffffffffff1660a09073ffffffffffffffffffffffffffffffffffffffff1660601b81525034801561004857600080fd5b503373ffffffffffffffffffffffffffffffffffffffff1660808173ffffffffffffffffffffffffffffffffffffffff1660601b8152505060805160601c60a05160601c6116436100ab6000396000610b060152600061083701526116436000f3fe608060405234801561001057600080fd5b50600436106100885760003560e01c8063703d80a51161005b578063703d80a514610125578063893d20e814610141578063a99100541461015f578063f266fa4a1461017b57610088565b806312f754e21461008d578063248bfc3b146100a957806334024731146100c55780635c2191a4146100f5575b600080fd5b6100a760048036038101906100a2919061104a565b610197565b005b6100c360048036038101906100be91906110da565b610404565b005b6100df60048036038101906100da9190611156565b610606565b6040516100ec9190611227565b60405180910390f35b61010f600480360381019061010a9190611156565b6106f2565b60405161011c9190611307565b60405180910390f35b61013f600480360381019061013a9190611329565b61079e565b005b610149610833565b6040516101569190611394565b60405180910390f35b61017960048036038101906101749190611156565b61085b565b005b610195600480360381019061019091906113af565b61099c565b005b60016000803373ffffffffffffffffffffffffffffffffffffffff1673ffffffffffffffffffffffffffffffffffffffff168152602001908152602001600020846040516101e59190611476565b908152602001604051809103902080546101fe906114bc565b905010156102455733836040517f05414e6e00000000000000000000000000000000000000000000000000000000815260040161023c9291906114ee565b60405180910390fd5b6002836040516102559190611476565b9081526020016040518091039020849080600181540180825580915050600190039060005260206000200160009091909190916101000a81548173ffffffffffffffffffffffffffffffffffffffff021916908373ffffffffffffffffffffffffffffffffffffffff16021790555081816000808773ffffffffffffffffffffffffffffffffffffffff1673ffffffffffffffffffffffffffffffffffffffff168152602001908152602001600020856040516103129190611476565b9081526020016040518091039020919061032d929190610ca8565b5081816000803373ffffffffffffffffffffffffffffffffffffffff1673ffffffffffffffffffffffffffffffffffffffff1681526020019081526020016000208560405161037c9190611476565b90815260200160405180910390209190610397929190610ca8565b5081816040516103a8929190611543565b60405180910390203373ffffffffffffffffffffffffffffffffffffffff167f0b612a127c3a76bda52d078f82cedaeb9c241d022529b9a081cbb07244be8e21856040516103f69190611227565b60405180910390a350505050565b60016000803373ffffffffffffffffffffffffffffffffffffffff1673ffffffffffffffffffffffffffffffffffffffff168152602001908152602001600020846040516104529190611476565b9081526020016040518091039020805461046b906114bc565b905011156104b25733836040517f5cc89e4b0000000000000000000000000000000000000000000000000000000081526004016104a99291906114ee565b60405180910390fd5b81816000803373ffffffffffffffffffffffffffffffffffffffff1673ffffffffffffffffffffffffffffffffffffffff168152602001908152602001600020856040516105009190611476565b9081526020016040518091039020919061051b929190610ca8565b5060028360405161052c9190611476565b9081526020016040518091039020339080600181540180825580915050600190039060005260206000200160009091909190916101000a81548173ffffffffffffffffffffffffffffffffffffffff021916908373ffffffffffffffffffffffffffffffffffffffff16021790555081816040516105ab929190611543565b60405180910390203373ffffffffffffffffffffffffffffffffffffffff167f7f626bb8eda4beb839c86ee25b81d9f3806f1980516bebc4744d97b9996487ae856040516105f99190611227565b60405180910390a3505050565b60606000803373ffffffffffffffffffffffffffffffffffffffff1673ffffffffffffffffffffffffffffffffffffffff168152602001908152602001600020826040516106549190611476565b9081526020016040518091039020805461066d906114bc565b80601f0160208091040260200160405190810160405280929190818152602001828054610699906114bc565b80156106e65780601f106106bb576101008083540402835291602001916106e6565b820191906000526020600020905b8154815290600101906020018083116106c957829003601f168201915b50505050509050919050565b60606002826040516107049190611476565b908152602001604051809103902080548060200260200160405190810160405280929190818152602001828054801561079257602002820191906000526020600020905b8160009054906101000a900473ffffffffffffffffffffffffffffffffffffffff1673ffffffffffffffffffffffffffffffffffffffff1681526020019060010190808311610748575b50505050509050919050565b80600160003373ffffffffffffffffffffffffffffffffffffffff1673ffffffffffffffffffffffffffffffffffffffff16815260200190815260200160002060008473ffffffffffffffffffffffffffffffffffffffff1673ffffffffffffffffffffffffffffffffffffffff168152602001908152602001600020908051906020019061082e929190610d2e565b505050565b60007f0000000000000000000000000000000000000000000000000000000000000000905090565b60016000803373ffffffffffffffffffffffffffffffffffffffff1673ffffffffffffffffffffffffffffffffffffffff168152602001908152602001600020826040516108a99190611476565b908152602001604051809103902080546108c2906114bc565b905010156109095733816040517f05414e6e0000000000000000000000000000000000000000000000000000000081526004016109009291906114ee565b60405180910390fd5b6000803373ffffffffffffffffffffffffffffffffffffffff1673ffffffffffffffffffffffffffffffffffffffff168152602001908152602001600020816040516109559190611476565b9081526020016040518091039020600061096f9190610db4565b60028160405161097f9190611476565b908152602001604051809103902060006109999190610df4565b50565b60016000803373ffffffffffffffffffffffffffffffffffffffff1673ffffffffffffffffffffffffffffffffffffffff168152602001908152602001600020826040516109ea9190611476565b90815260200160405180910390208054610a03906114bc565b90501015610a4a5733816040517f05414e6e000000000000000000000000000000000000000000000000000000008152600401610a419291906114ee565b60405180910390fd5b60005b600282604051610a5d9190611476565b908152602001604051809103902080549050811015610c33578373ffffffffffffffffffffffffffffffffffffffff16600283604051610a9d9190611476565b90815260200160405180910390208281548110610abd57610abc61155c565b5b9060005260206000200160009054906101000a900473ffffffffffffffffffffffffffffffffffffffff1673ffffffffffffffffffffffffffffffffffffffff161415610c20577f0000000000000000000000000000000000000000000000000000000000000000600283604051610b359190611476565b90815260200160405180910390208281548110610b5557610b5461155c565b5b9060005260206000200160006101000a81548173ffffffffffffffffffffffffffffffffffffffff021916908373ffffffffffffffffffffffffffffffffffffffff160217905550604051806020016040528060008152506000808673ffffffffffffffffffffffffffffffffffffffff1673ffffffffffffffffffffffffffffffffffffffff16815260200190815260200160002083604051610bf99190611476565b90815260200160405180910390209080519060200190610c1a929190610d2e565b50610c33565b8080610c2b906115c4565b915050610a4d565b50816000803373ffffffffffffffffffffffffffffffffffffffff1673ffffffffffffffffffffffffffffffffffffffff16815260200190815260200160002082604051610c819190611476565b90815260200160405180910390209080519060200190610ca2929190610d2e565b50505050565b828054610cb4906114bc565b90600052602060002090601f016020900481019282610cd65760008555610d1d565b82601f10610cef57803560ff1916838001178555610d1d565b82800160010185558215610d1d579182015b82811115610d1c578235825591602001919060010190610d01565b5b509050610d2a9190610e15565b5090565b828054610d3a906114bc565b90600052602060002090601f016020900481019282610d5c5760008555610da3565b82601f10610d7557805160ff1916838001178555610da3565b82800160010185558215610da3579182015b82811115610da2578251825591602001919060010190610d87565b5b509050610db09190610e15565b5090565b508054610dc0906114bc565b6000825580601f10610dd25750610df1565b601f016020900490600052602060002090810190610df09190610e15565b5b50565b5080546000825590600052602060002090810190610e129190610e15565b50565b5b80821115610e2e576000816000905550600101610e16565b5090565b6000604051905090565b600080fd5b600080fd5b600073ffffffffffffffffffffffffffffffffffffffff82169050919050565b6000610e7182610e46565b9050919050565b610e8181610e66565b8114610e8c57600080fd5b50565b600081359050610e9e81610e78565b92915050565b600080fd5b600080fd5b6000601f19601f8301169050919050565b7f4e487b7100000000000000000000000000000000000000000000000000000000600052604160045260246000fd5b610ef782610eae565b810181811067ffffffffffffffff82111715610f1657610f15610ebf565b5b80604052505050565b6000610f29610e32565b9050610f358282610eee565b919050565b600067ffffffffffffffff821115610f5557610f54610ebf565b5b610f5e82610eae565b9050602081019050919050565b82818337600083830152505050565b6000610f8d610f8884610f3a565b610f1f565b905082815260208101848484011115610fa957610fa8610ea9565b5b610fb4848285610f6b565b509392505050565b600082601f830112610fd157610fd0610ea4565b5b8135610fe1848260208601610f7a565b91505092915050565b600080fd5b600080fd5b60008083601f84011261100a57611009610ea4565b5b8235905067ffffffffffffffff81111561102757611026610fea565b5b60208301915083600182028301111561104357611042610fef565b5b9250929050565b6000806000806060858703121561106457611063610e3c565b5b600061107287828801610e8f565b945050602085013567ffffffffffffffff81111561109357611092610e41565b5b61109f87828801610fbc565b935050604085013567ffffffffffffffff8111156110c0576110bf610e41565b5b6110cc87828801610ff4565b925092505092959194509250565b6000806000604084860312156110f3576110f2610e3c565b5b600084013567ffffffffffffffff81111561111157611110610e41565b5b61111d86828701610fbc565b935050602084013567ffffffffffffffff81111561113e5761113d610e41565b5b61114a86828701610ff4565b92509250509250925092565b60006020828403121561116c5761116b610e3c565b5b600082013567ffffffffffffffff81111561118a57611189610e41565b5b61119684828501610fbc565b91505092915050565b600081519050919050565b600082825260208201905092915050565b60005b838110156111d95780820151818401526020810190506111be565b838111156111e8576000848401525b50505050565b60006111f98261119f565b61120381856111aa565b93506112138185602086016111bb565b61121c81610eae565b840191505092915050565b6000602082019050818103600083015261124181846111ee565b905092915050565b600081519050919050565b600082825260208201905092915050565b6000819050602082019050919050565b61127e81610e66565b82525050565b60006112908383611275565b60208301905092915050565b6000602082019050919050565b60006112b482611249565b6112be8185611254565b93506112c983611265565b8060005b838110156112fa5781516112e18882611284565b97506112ec8361129c565b9250506001810190506112cd565b5085935050505092915050565b6000602082019050818103600083015261132181846112a9565b905092915050565b600080604083850312156113405761133f610e3c565b5b600061134e85828601610e8f565b925050602083013567ffffffffffffffff81111561136f5761136e610e41565b5b61137b85828601610fbc565b9150509250929050565b61138e81610e66565b82525050565b60006020820190506113a96000830184611385565b92915050565b6000806000606084860312156113c8576113c7610e3c565b5b60006113d686828701610e8f565b935050602084013567ffffffffffffffff8111156113f7576113f6610e41565b5b61140386828701610fbc565b925050604084013567ffffffffffffffff81111561142457611423610e41565b5b61143086828701610fbc565b9150509250925092565b600081905092915050565b60006114508261119f565b61145a818561143a565b935061146a8185602086016111bb565b80840191505092915050565b60006114828284611445565b915081905092915050565b7f4e487b7100000000000000000000000000000000000000000000000000000000600052602260045260246000fd5b600060028204905060018216806114d457607f821691505b602082108114156114e8576114e761148d565b5b50919050565b60006040820190506115036000830185611385565b818103602083015261151581846111ee565b90509392505050565b600061152a838561143a565b9350611537838584610f6b565b82840190509392505050565b600061155082848661151e565b91508190509392505050565b7f4e487b7100000000000000000000000000000000000000000000000000000000600052603260045260246000fd5b7f4e487b7100000000000000000000000000000000000000000000000000000000600052601160045260246000fd5b6000819050919050565b60006115cf826115ba565b91507fffffffffffffffffffffffffffffffffffffffffffffffffffffffffffffffff8214156116025761160161158b565b5b60018201905091905056fea2646970667358221220cce4ba1e493fc7002312318c3f980f236a3542535ece1026af9d577c1009d8eb64736f6c63430008080033",
  "devdoc": {
    "kind": "dev",
    "methods": {},
    "version": 1
  },
  "userdoc": {
    "kind": "user",
    "methods": {},
    "version": 1
  },
  "storageLayout": {
    "storage": [
      {
        "astId": 19,
        "contract": "contracts/Web3Drive.sol:Web3Drive",
        "label": "s_ownfiles",
        "offset": 0,
        "slot": "0",
        "type": "t_mapping(t_address,t_mapping(t_string_memory_ptr,t_string_storage))"
      },
      {
        "astId": 25,
        "contract": "contracts/Web3Drive.sol:Web3Drive",
        "label": "s_nicknames",
        "offset": 0,
        "slot": "1",
        "type": "t_mapping(t_address,t_mapping(t_address,t_string_storage))"
      },
      {
        "astId": 30,
        "contract": "contracts/Web3Drive.sol:Web3Drive",
        "label": "s_hasAccess",
        "offset": 0,
        "slot": "2",
        "type": "t_mapping(t_string_memory_ptr,t_array(t_address)dyn_storage)"
      }
    ],
    "types": {
      "t_address": {
        "encoding": "inplace",
        "label": "address",
        "numberOfBytes": "20"
      },
      "t_array(t_address)dyn_storage": {
        "base": "t_address",
        "encoding": "dynamic_array",
        "label": "address[]",
        "numberOfBytes": "32"
      },
      "t_mapping(t_address,t_mapping(t_address,t_string_storage))": {
        "encoding": "mapping",
        "key": "t_address",
        "label": "mapping(address => mapping(address => string))",
        "numberOfBytes": "32",
        "value": "t_mapping(t_address,t_string_storage)"
      },
      "t_mapping(t_address,t_mapping(t_string_memory_ptr,t_string_storage))": {
        "encoding": "mapping",
        "key": "t_address",
        "label": "mapping(address => mapping(string => string))",
        "numberOfBytes": "32",
        "value": "t_mapping(t_string_memory_ptr,t_string_storage)"
      },
      "t_mapping(t_address,t_string_storage)": {
        "encoding": "mapping",
        "key": "t_address",
        "label": "mapping(address => string)",
        "numberOfBytes": "32",
        "value": "t_string_storage"
      },
      "t_mapping(t_string_memory_ptr,t_array(t_address)dyn_storage)": {
        "encoding": "mapping",
        "key": "t_string_memory_ptr",
        "label": "mapping(string => address[])",
        "numberOfBytes": "32",
        "value": "t_array(t_address)dyn_storage"
      },
      "t_mapping(t_string_memory_ptr,t_string_storage)": {
        "encoding": "mapping",
        "key": "t_string_memory_ptr",
        "label": "mapping(string => string)",
        "numberOfBytes": "32",
        "value": "t_string_storage"
      },
      "t_string_memory_ptr": {
        "encoding": "bytes",
        "label": "string",
        "numberOfBytes": "32"
      },
      "t_string_storage": {
        "encoding": "bytes",
        "label": "string",
        "numberOfBytes": "32"
      }
    }
  }
}